:020000040800F2
:1000000060060020190200082102000823020008EF
:10001000250200082702000829020008000000004D
:100020000000000000000000000000002B0200089B
:100030002D020008000000002F0200083102000815
:1000400033020008330200083302000833020008BC
:1000500033020008330200083302000833020008AC
:10006000330200083302000833020008330200089C
:10007000330200083302000833020008330200088C
:1000800033020008330200083302000800000000B9
:100090000000000000000000000000003302000823
:1000A000330200083302000833020008330200085C
:1000B000330200083302000833020008330200084C
:1000C000330200083302000833020008330200083C
:1000D0003302000833020008330200080000000069
:1000E0003302000833020008330200080000000059
:1000F00000000000000000000000000033020008C3
:100100000000000033020008330200083302000838
:1001100000000000000000000000000000000000DF
:1001200033020008330200083302000833020008DB
:100130003302000800000000000000000000000082
:100140000000000000000000000000003302000872
:1001500033020008330200083302000833020008AB
:100160003302000833020008000000000000000015
:10017000000000000000000000000000000000007F
:100180000000000033020008000000000000000032
:100190003302000800F002F800F02EF80AA090E800
:1001A000000C82448344AAF10107DA4501D100F032
:1001B00023F8AFF2090EBAE80F0013F0010F18BFD1
:1001C000FB1A43F00103184794030000A403000046
:1001D0000023002400250026103A28BF78C1FBD850
:1001E000520728BF30C148BF0B6070471FB500F0F1
:1001F000A8F91FBD10B510BD00F031F81146FFF78A
:10020000F5FF00F089F900F04FF803B4FFF7F2FFB3
:1002100003BC00F057F80000094880470948004730
:10022000FEE7FEE7FEE7FEE7FEE7FEE7FEE7FEE7A6
:10023000FEE7FEE704480549054A064B7047000003
:1002400005050008950100086000002060060020F8
:1002500060020020600200207047704770477546BA
:1002600000F02CF8AE4605006946534620F0070022
:10027000854618B020B5FFF7DDFFBDE820404FF000
:1002800000064FF000074FF000084FF0000BAC469F
:10029000ACE8C009ACE8C009ACE8C009ACE8C009EA
:1002A00021F007018D46704710B50446AFF300807A
:1002B0002046BDE81040FFF7A8BF00000048704787
:1002C0000000002001491820ABBEFEE72600020016
:1002D0007047000082B001900198009007284ED826
:1002E0000099DFE801F004101C28344C4C400199BF
:1002F000012000FA01F243F63001C4F2020108685D
:10030000104308603CE00199012000FA01F243F635
:100310003001C4F2020108681043086030E001991E
:10032000012000FA01F243F63001C4F2020108682C
:100330001043086024E00199012000FA01F243F61D
:100340003001C4F2020108681043086018E0019906
:10035000012000FA01F243F63001C4F202010868FC
:10036000104308600CE00199012000FA01F243F605
:100370003001C4F2020108681043086000E0FFE7A2
:1003800002B0704784B003900291019243F63001AD
:10039000C4F20201086840F0010008600398009070
:1003A00007284DD80099DFE801F0040F1B27334BD5
:1003B0004B3F0198029900FA01F20021C4F20201B8
:1003C0000868104308603CE00198029900FA01F2C5
:1003D00040F20041C4F2020108681043086030E0B6
:1003E0000198029900FA01F240F60001C4F20201FC
:1003F00008681043086024E00198029900FA01F2AD
:1004000040F60041C4F2020108681043086018E099
:100410000198029900FA01F241F20001C4F20201CE
:100420000868104308600CE00198029900FA01F294
:1004300041F60041C4F2020108681043086000E080
:10044000FFE704B07047000084B00390029101926E
:1004500002980F2854D8FFE70398009007284DD83A
:100460000099DFE801F0040F1B27334B4B3F019845
:10047000029900FA01F21421C4F202010868104343
:1004800008603CE00198029900FA01F240F2144140
:10049000C4F2020108681043086030E00198029934
:1004A00000FA01F240F61401C4F202010868104398
:1004B000086024E00198029900FA01F240F6144124
:1004C000C4F2020108681043086018E0019802991C
:1004D00000FA01F241F21401C4F20201086810436B
:1004E00008600CE00198029900FA01F241F614410B
:1004F000C4F2020108681043086000E0FFE7FFE76C
:1005000004B070474EF68851CEF20001086840F4FE
:10051000700008607047000080B584B00020039030
:10052000FFF7D8FE03980521019101220292FFF7FF
:1005300029FF0199029A0398FFF786FF039804B0F8
:1005400080BDF1EE100A4FF6FF71C0F2C03120EA13
:10055000010040F04070E1EE100A70476C050008A1
:0C0560000000002060060000D001000830
:0400000508000219D4
:00000001FF
